:100000000C942A000C9447000C9447000C94470071
:100010000C9415010C9447000C9447000C94470075
:100020000C9447000C9447000C9447000C94470034
:100030000C9447000C9447000C9447000C94470024
:100040000C9447000C9447000C9447000C94470014
:100050000C94470011241FBECFE5D4E0DEBFCDBF16
:1000600010E0A0E6B0E0E2EEF2E002C005900D92F2
:10007000AC36B107D9F720E0ACE6B0E001C01D9284
:10008000A037B207E1F70E944E010C946F010C9467
:100090000000CF93DF93AC01D62F84369105B0F1E9
:1000A000C0E0C33008F092C0E2E0F0E0EC1BF109E0
:1000B0009A01ADECBCEC0E946001969587959695EF
:1000C0008795969587959C01220F331F880F991F5E
:1000D000880F991F880F991F820F931F9A01281B61
:1000E000390BD901A05ABF4F8C91E359FF4F808340
:1000F0009A01ADECBCEC0E946001AC0156954795AD
:100100005695479556954795CF5FCBCF0A97D0F137
:1001100080916A0080936D00C0E0C23008F056C044
:10012000E2E0F0E0EC1BF1099A01ADECBCEC0E94BE
:1001300060019695879596958795969587959C01EC
:10014000220F331F880F991F880F991F880F991F3F
:10015000820F931F9A01281B390BD901A05ABF4F58
:100160008C91E359FF4F80839A01ADECBCEC0E9467
:100170006001AC015695479556954795569547951C
:10018000CF5FCBCF80916A00EDE6F0E08083818382
:100190009A01ADECBCEC0E9460019695879596950E
:1001A0008795969587959C01220F331F880F991F7D
:1001B000880F991F880F991F820F931F9A01281B80
:1001C000390BD901A05ABF4F8C918283DD23E1F016
:1001D0008FEF8D0F833050F4E3E0F0E0ED1BF10979
:1001E000E359FF4F8081806880831CC080E08330AA
:1001F000C8F4E2E0F0E0E81BF109E359FF4F908119
:10020000906890838F5FF3CF80E0833058F4E2E012
:10021000F0E0E81BF109E359FF4F90819F7790834D
:100220008F5FF3CFDF91CF9108951F920F920FB69A
:100230000F9211248F9380916C00813089F018F017
:100240008230D9F025C088B3846088BB80916D006E
:1002500085BB88B38E7F88BB81E080936C0018C01B
:1002600088B3816088BB80916E0085BB88B38D7F29
:1002700088BB82E080936C000BC088B3826088BB2F
:1002800080916F0085BB88B38B7F88BB10926C0018
:100290008F910F900FBE0F901F90189585B58260BB
:1002A00085BD89B7806489BF8FEF84BB87B38760C2
:1002B00087BB789460E089E390E00E944900FFCF1B
:1002C000A29FB001B39FC001A39F700D811D112497
:1002D000911DB29F700D811D1124911D0895F894F8
:0202E000FFCF4E
:0C02E2003F065B4F666D7D077F6F0000DC
:00000001FF
