:100000000C9446000C9450000C9450000C9450003A
:100010000C9450000C9450000C9450000C94500020
:100020000C9450000C9450000C9450000C94500010
:100030000C9450000C9450000C9450000C94500000
:100040000C9450000C9450000C9450000C945000F0
:100050000C9450007500770079007B007D007F00D4
:10006000810083008500970099009C009E00A000FD
:10007000A200A400A600A800AA00BE00C000C20002
:10008000C400C600C800CA00CC00CE0011241FBEA8
:10009000CFE5D4E0DEBFCDBF0E94D9000C94FC00B8
:1000A0000C9400008A30910540F08436910550F49C
:1000B0006AE070E00E94E20002C06AE070E02AE0BC
:1000C00030E006C080E090E060E070E021E030E0E9
:1000D00043E048BBFC013197E930F10520F4E65DCF
:1000E000FF4F0C94F6008FE311C086E00FC08BE544
:1000F0000DC08FE40BC086E609C08DE607C08DE712
:1001000005C087E003C08FE701C08FE685BB8FEC99
:1001100097E00197F1F700C0000085E088BB6A30E6
:100120007105D0F4FB01ED5CFF4F0C94F6008FE3FA
:1001300001C086E085BB11C08BE5FCCF8FE4FACF10
:1001400086E6F8CF8DE6F6CF8DE7F4CF87E0F2CFE5
:100150008FE7F0CF8FE6EECF15BA8FEC97E00197DF
:10016000F1F700C0000086E088BBF9013197E93063
:10017000F105B8F4E35CFF4F0C94F60086E00FC085
:100180008BE50DC08FE40BC086E609C08DE607C085
:100190008DE705C087E003C08FE701C08FE685BB10
:1001A00001C015BA8FEC97E00197F1F700C000008D
:1001B00008958FEF84BB87E087BB82E390E00E94C5
:1001C0005200FBCFAA1BBB1B51E107C0AA1FBB1FDC
:1001D000A617B70710F0A61BB70B881F991F5A95D3
:1001E000A9F780959095BC01CD010895EE0FFF1FF2
:0C01F0000590F491E02D0994F894FFCFE5
:00000001FF
