:100000000C9451000C945B000C945B000C945B000E
:100010000C945B000C945B000C945B000C945B00F4
:100020000C945B000C945B000C945B000C945B00E4
:100030000C945B000C945B000C945B000C945B00D4
:100040000C945B000C945B000C945B000C945B00C4
:100050000C945B0087008200840078007A007C00AA
:100060007E007E00800082008400C100C300C500C5
:10007000C700C900CB00CD00CF00D100E300E500F0
:10008000E800EA00EC00EE00F000F200F400F600F8
:100090000A010C010E0110011201140116011801D0
:1000A0001A0111241FBECFE5D4E0DEBFCDBF0E94F0
:1000B00025010C94F7020C9400001CBEBB9A83B778
:1000C000826683BF089580E487B9369A349BFECF59
:1000D000349A84B195B108956AE070E00E94DD021F
:1000E0006B307105A0F4FB01E65DFF4F0C94F1024B
:1000F00084EC0BC084EE09C086EE07C086EF05C015
:100100008EEF03C080E801C080EC82BB089512BA74
:100110000895BC0180E090E00E94E20120E030EC14
:100120004FE754E40E94410120E030E048EC52E403
:100130000E9470020E94B301CB0108958A3091059C
:1001400040F08436910550F46AE070E00E94DD02D0
:1001500002C06AE070E02AE030E006C080E090E093
:1001600060E070E021E030E043E048BBFC01319703
:10017000E930F10520F4EB5CFF4F0C94F1028FE3C2
:1001800011C086E00FC08BE50DC08FE40BC086E682
:1001900009C08DE607C08DE705C087E003C08FE783
:1001A00001C08FE685BB8FEC97E00197F1F700C0A7
:1001B000000085E088BB6A307105D0F4FB01E25C89
:1001C000FF4F0C94F1028FE301C086E085BB11C0A4
:1001D0008BE5FCCF8FE4FACF86E6F8CF8DE6F6CF3D
:1001E0008DE7F4CF87E0F2CF8FE7F0CF8FE6EECF49
:1001F00015BA8FEC97E00197F1F700C0000086E098
:1002000088BBF9013197E930F105B8F4E85BFF4F9D
:100210000C94F10286E00FC08BE50DC08FE40BC09B
:1002200086E609C08DE607C08DE705C087E003C0FC
:100230008FE701C08FE685BB01C015BA8FEC97E050
:100240000197F1F700C0000008951ABA8FE087BB4C
:100250008FEF84BB81BB8EE18BBB18BA89E082BB78
:1002600017B881E886B90E945D000E9463000E9471
:100270008900EC018CBF0E946C00CE010E949E00A0
:10028000F4CF0E9455010C9436020E942F0258F0C0
:100290000E94280240F029F45F3F29F00C941F02CD
:1002A00051110C946A020C9425020E94470268F3D3
:1002B0009923B1F3552391F3951B550BBB27AA271F
:1002C00062177307840738F09F5F5F4F220F331F59
:1002D000441FAA1FA9F335D00E2E3AF0E0E832D021
:1002E00091505040E695001CCAF72BD0FE2F29D024
:1002F000660F771F881FBB1F261737074807AB07F6
:10030000B0E809F0BB0B802DBF01FF2793585F4F6A
:100310003AF09E3F510578F00C941F020C946A024B
:100320005F3FE4F3983ED4F3869577956795B7954C
:10033000F7959F5FC9F7880F911D9695879597F957
:100340000895E1E0660F771F881FBB1F62177307D0
:100350008407BA0720F0621B730B840BBA0BEE1FE5
:1003600088F7E09508950E944F0288F09F5798F013
:10037000B92F9927B751B0F0E1F0660F771F881FAA
:10038000991F1AF0BA95C9F714C0B13091F00E94C4
:100390006902B1E008950C946902672F782F8827CD
:1003A000B85F39F0B93FCCF3869577956795B395EB
:1003B000D9F73EF490958095709561957F4F8F4F5A
:1003C0009F4F0895E89409C097FB3EF4909580955F
:1003D000709561957F4F8F4F9F4F9923A9F0F92F0B
:1003E00096E9BB279395F695879577956795B79589
:1003F000F111F8CFFAF4BB0F11F460FF1BC06F5F6F
:100400007F4F8F4F9F4F16C0882311F096E911C080
:10041000772321F09EE8872F762F05C0662371F0A1
:1004200096E8862F70E060E02AF09A95660F771FB5
:10043000881FDAF7880F9695879597F9089597F9A9
:100440009F6780E870E060E008959FEF80EC08957A
:1004500000240A94161617061806090608950024A3
:100460000A9412161306140605060895092E03941D
:10047000000C11F4882352F0BB0F40F4BF2B11F491
:1004800060FF04C06F5F7F4F8F4F9F4F089557FDF0
:100490009058440F551F59F05F3F71F04795880FF2
:1004A00097FB991F61F09F3F79F087950895121689
:1004B00013061406551FF2CF4695F1DF08C0161635
:1004C00017061806991FF1CF8695710561050894E6
:1004D0000895E894BB2766277727CB0197F90895FD
:1004E0000E9483020C9436020E94280238F00E9477
:1004F0002F0220F0952311F00C941F020C9425027A
:1005000011240C946A020E94470270F3959FC1F374
:10051000950F50E0551F629FF001729FBB27F00DB1
:10052000B11D639FAA27F00DB11DAA1F649F662706
:10053000B00DA11D661F829F2227B00DA11D621F55
:10054000739FB00DA11D621F839FA00D611D221F0F
:10055000749F3327A00D611D231F849F600D211DF3
:10056000822F762F6A2F11249F5750409AF0F1F076
:1005700088234AF0EE0FFF1FBB1F661F771F881FDF
:1005800091505040A9F79E3F510580F00C941F02F6
:100590000C946A025F3FE4F3983ED4F38695779516
:1005A0006795B795F795E7959F5FC1F7FE2B880F85
:1005B000911D9695879597F90895AA1BBB1B51E14C
:1005C00007C0AA1FBB1FA617B70710F0A61BB70BC3
:1005D000881F991F5A95A9F780959095BC01CD0168
:1005E0000895EE0FFF1F0590F491E02D0994F89403
:0205F000FFCF3B
:00000001FF
