:100000000C942A000C9434000C9434000C943400AA
:100010000C9434000C9434000C9434000C94340090
:100020000C9434000C9434000C9434000C94340080
:100030000C9434000C9434000C9434000C94340070
:100040000C9434000C9434000C9434000C94340060
:100050000C94340011241FBECFE5D4E0DEBFCDBF29
:100060000E9436000C945D000C9400001ABA8FEFC9
:1000700081BB8BB38E618BBBC99903C082B3806C8B
:1000800002C082B38F7382BBCA9903C082B38462F9
:1000900002C082B38B7D82BBCB9903C082B38261E5
:1000A00002C082B38D7E82BBCC9903C082B38960CB
:0E00B00002C082B3867F82BBDFCFF894FFCF01
:00000001FF
