:100000000C942A000C9447000C9447000C94470071
:100010000C9437010C9447000C9447000C94470053
:100020000C9447000C9447000C9447000C94470034
:100030000C9447000C9447000C9447000C94470024
:100040000C9447000C9447000C9447000C94470014
:100050000C94470011241FBECFE5D4E0DEBFCDBF16
:1000600010E0A0E6B0E0E8E6F6E002C005900D92F0
:10007000AC36B107D9F720E0ACE6B0E001C01D9284
:10008000A037B207E1F70E9470010C9432030C9480
:10009000000080E487B986B1806486B9349BFECFC6
:1000A00086B1806186B984B195B10895BC0180E0C4
:1000B00090E00E94280220E030EC4FE754E40E94D8
:1000C000870120E030E048EC52E40E94B6020E9432
:1000D000F901CB010895CF93DF93AC01D62F84367D
:1000E0009105B0F1C0E0C33008F092C0E2E0F0E06A
:1000F000EC1BF1099A01ADECBCEC0E942303969530
:10010000879596958795969587959C01220F331F25
:10011000880F991F880F991F880F991F820F931FAF
:100120009A01281B390BD901A05ABF4F8C91E35972
:10013000FF4F80839A01ADECBCEC0E942303AC011D
:10014000569547955695479556954795CF5FCBCF92
:100150000A97D0F180916A0080936D00C0E0C230B0
:1001600008F056C0E2E0F0E0EC1BF1099A01ADECBA
:10017000BCEC0E9423039695879596958795969556
:1001800087959C01220F331F880F991F880F991F95
:10019000880F991F820F931F9A01281B390BD901D1
:1001A000A05ABF4F8C91E359FF4F80839A01ADEC69
:1001B000BCEC0E942303AC01569547955695479594
:1001C00056954795CF5FCBCF80916A00EDE6F0E082
:1001D000808381839A01ADECBCEC0E942303969549
:1001E000879596958795969587959C01220F331F45
:1001F000880F991F880F991F880F991F820F931FCF
:100200009A01281B390BD901A05ABF4F8C918283C8
:10021000DD23E1F08FEF8D0F833050F4E3E0F0E069
:10022000ED1BF109E359FF4F8081806880831CC07A
:1002300080E08330C8F4E2E0F0E0E81BF109E35924
:10024000FF4F9081906890838F5FF3CF80E0833081
:1002500058F4E2E0F0E0E81BF109E359FF4F908128
:100260009F7790838F5FF3CFDF91CF9108951F9297
:100270000F920FB60F9211248F9380916C008130F2
:1002800089F018F08230D9F025C088B3846088BB2B
:1002900080916D0085BB88B38E7F88BB81E08093A1
:1002A0006C0018C088B3816088BB80916E0085BBEC
:1002B00088B38D7F88BB82E080936C000BC088B3CD
:1002C000826088BB80916F0085BB88B38B7F88BBC1
:1002D00010926C008F910F900FBE0F901F90189589
:1002E00085B5836085BD89B7806489BF8FEF84BB86
:1002F00087B3876087BB789417B887E886B90E9470
:1003000049000E94560060E00E946B00F8CF0E94F6
:100310009B010C947C020E94750258F00E946E02B0
:1003200040F029F45F3F29F00C94650251110C94C0
:10033000B0020C946B020E948D0268F39923B1F312
:10034000552391F3951B550BBB27AA2762177307FB
:10035000840738F09F5F5F4F220F331F441FAA1F8F
:10036000A9F335D00E2E3AF0E0E832D0915050404B
:10037000E695001CCAF72BD0FE2F29D0660F771FF9
:10038000881FBB1F261737074807AB07B0E809F0DF
:10039000BB0B802DBF01FF2793585F4F3AF09E3F64
:1003A000510578F00C9465020C94B0025F3FE4F3C1
:1003B000983ED4F3869577956795B795F7959F5FA7
:1003C000C9F7880F911D9695879597F90895E1E0F3
:1003D000660F771F881FBB1F621773078407BA0752
:1003E00020F0621B730B840BBA0BEE1F88F7E095AD
:1003F00008950E94950288F09F5798F0B92F992789
:10040000B751B0F0E1F0660F771F881F991F1AF0FF
:10041000BA95C9F714C0B13091F00E94AF02B1E0B3
:1004200008950C94AF02672F782F8827B85F39F0B2
:10043000B93FCCF3869577956795B395D9F73EF498
:1004400090958095709561957F4F8F4F9F4F089540
:10045000E89409C097FB3EF490958095709561955E
:100460007F4F8F4F9F4F9923A9F0F92F96E9BB2714
:100470009395F695879577956795B795F111F8CF90
:10048000FAF4BB0F11F460FF1BC06F5F7F4F8F4FFB
:100490009F4F16C0882311F096E911C0772321F0F1
:1004A0009EE8872F762F05C0662371F096E8862F89
:1004B00070E060E02AF09A95660F771F881FDAF7E0
:1004C000880F9695879597F9089597F99F6780E823
:1004D00070E060E008959FEF80EC089500240A9496
:1004E0001616170618060906089500240A9412160F
:1004F0001306140605060895092E0394000C11F442
:10050000882352F0BB0F40F4BF2B11F460FF04C0EE
:100510006F5F7F4F8F4F9F4F089557FD9058440F47
:10052000551F59F05F3F71F04795880F97FB991F52
:1005300061F09F3F79F0879508951216130614060F
:10054000551FF2CF4695F1DF08C01616170618069C
:10055000991FF1CF86957105610508940895E89477
:10056000BB2766277727CB0197F908950E94C90218
:100570000C947C020E946E0238F00E94750220F0FA
:10058000952311F00C9465020C946B0211240C94C9
:10059000B0020E948D0270F3959FC1F3950F50E059
:1005A000551F629FF001729FBB27F00DB11D639F25
:1005B000AA27F00DB11DAA1F649F6627B00DA11DCB
:1005C000661F829F2227B00DA11D621F739FB00D71
:1005D000A11D621F839FA00D611D221F749F3327E1
:1005E000A00D611D231F849F600D211D822F762F7A
:1005F0006A2F11249F5750409AF0F1F088234AF057
:10060000EE0FFF1FBB1F661F771F881F91505040C2
:10061000A9F79E3F510580F00C9465020C94B0023E
:100620005F3FE4F3983ED4F3869577956795B79549
:10063000F795E7959F5FC1F7FE2B880F911D969563
:10064000879597F90895A29FB001B39FC001A39F1A
:10065000700D811D1124911DB29F700D811D1124FB
:08066000911D0895F894FFCFED
:0C0668003F065B4F666D7D077F6F000052
:00000001FF
